:020000040800F2
:1000000000000320ED420108ED400108FB4001081B
:1000100001410108074101080D41010800000000ED
:100020000000000000000000000000003130000867
:10003000134101080000000071320008D9320008A5
:100040003D4301083D4301083D4301083D4301088C
:100050003D4301083D4301083D4301083D4301087C
:100060003D4301083D4301083D4301083D4301086C
:100070003D4301083D4301083D4301083D4301085C
:100080003D4301083D4301083D4301083D4301084C
:100090003D4301083D4301083D4301083D4301083C
:1000A0003D430108214101083D4301083D4301084A
:1000B0003D4301083D4301083D4301083D4301081C
:1000C0003D4301083D4301083D4301083D4301080C
:1000D0003D4301083D4301083D4301083D430108FC
:1000E0003D4301083D4301083D4301083D430108EC
:1000F0003D4301083D4301083D4301083D430108DC
:100100003D4301083D4301083D4301083D430108CB
:100110003D4301083D4301083D4301083D430108BB
:100120003D4301083D4301083D4301083D430108AB
:100130003D430108354101083D4301083D430108A5
:100140003D4301083D4301083D4301083D4301088B
:100150003D4301083D4301083D4301083D4301087B
:100160003D4301083D4301083D4301083D4301086B
:100170003D4301083D4301083D43010800000000E4
:100180003D4301083D4301083D4301083D4301084B
:100190003D4301083D4301083D4301083D4301083B
:0C01A0003D4301083D4301083D430108B8
:1001B00010B5054C237833B9044B13B10448AFF3A1
:1001C00000800123237010BD80000020000000008B
:1001D0004052010808B5034B1BB103490348AFF374
:1001E000008008BD0000000084000020405201088B
:1001F00001F0FF01102A2BDB10F0070F08D010F8D8
:10020000013B013A8B422DD010F0070F42B3F6D1DB
:10021000F0B441EA012141EA014122F007047FF0F4
:1002200000070023F0E80256083C85EA010586EA4B
:10023000010685FA47F5A3FA87F586FA47F6A5FA87
:1002400087F68EB9EED1F0BC01F0FF0102F0070293
:1002500032B110F8013B013A83EA010313B1F8D13E
:100260000020704701387047002D06BF354603381F
:10027000073815F0010F07D1013015F4807F02BF58
:10028000013015F4C03F0130F0BC0138704700BFA9
:1002900053B94AB9002908BF00281CBF4FF0FF31ED
:1002A0004FF0FF3000F07AB9ADF1080C6DE904CEE3
:1002B00000F006F8DDF804E0DDE9022304B0704741
:1002C0002DE9F0478C460D460446089E002B51D17F
:1002D0008A4217466DD9B2FA82FEBEF1000F0BD0EA
:1002E000CEF1200C01FA0EF520FA0CFC02FA0EF702
:1002F0004CEA050C00FA0EF44FEA174A250CBCFB39
:10030000FAF81FFA87F90AFB18CC45EA0C4508FBF6
:1003100009F3AB420AD9ED1908F1FF3280F02381CD
:10032000AB4240F22081A8F102083D44ED1AA4B28C
:10033000B5FBFAF00AFB105544EA054400FB09F945
:10034000A14509D9E41900F1FF3380F00A81A145E4
:1003500040F2078102383C44A4EB090440EA08401B
:100360000021002E61D024FA0EF400233460736063
:10037000BDE8F0878B4207D9002E54D0002186E8D3
:1003800021000846BDE8F087B3FA83F1002940F068
:100390008E80AB4202D3824200F2FA80841A65EB6F
:1003A00003050120AC46002E3FD086E81010BDE8C2
:1003B000F08712B90127B7FBF2F7B7FA87FEBEF153
:1003C000000F34D1EB1B3A0C1FFA87FC0121B3FB61
:1003D000F2F8250C02FB183345EA03450CFB08F341
:1003E000AB4207D9ED1908F1FF3002D2AB4200F25F
:1003F000D1808046ED1AA3B2B5FBF2F002FB105596
:1004000043EA05440CFB00FCA44507D9E41900F1BC
:10041000FF3302D2A44500F2B8801846A4EB0C04C6
:1004200040EA08409DE731463046BDE8F087CEF10E
:10043000200405FA0EF307FA0EF720FA04F83A0C36
:1004400025FA04F448EA0308B4FBF2F14FEA184530
:1004500002FB11441FFA87FC45EA044501FB0CF33B
:10046000AB4200FA0EF409D9ED1901F1FF3080F02A
:100470008A80AB4240F2878002393D44EB1A1FFA72
:1004800088F5B3FBF2F002FB103345EA034500FBAD
:100490000CF3AB4207D9ED1900F1FF386FD2AB4234
:1004A0006DD902383D44EB1A40EA01418FE7C1F1B2
:1004B000200722FA07F88B4005FA01F448EA030303
:1004C00020FA07FE4FEA134CFD404EEA040EB5FB3E
:1004D000FCF94FEA1E440CFB19551FFA83F844EA55
:1004E000054509FB08F4AC4202FA01F200FA01FAF0
:1004F00008D9ED1809F1FF3043D2AC4241D9A9F136
:1005000002091D442D1B1FFA8EFEB5FBFCF00CFBEF
:1005100010554EEA054400FB08F8A04507D9E41839
:1005200000F1FF3529D2A04527D902381C4440EA02
:100530000940A4EB0804A0FB02894C45C6464D4681
:1005400015D312D056B1BAEB0E0364EB050404FACE
:1005500007F7CB401F43CC40376074600021BDE8F3
:10056000F0871846F8E69046E0E6C245EAD2B8EBD6
:10057000020E69EB03050138E4E72846D7E7404659
:1005800091E78146BEE7014678E702383C4445E7FB
:10059000084608E7A8F102083D442BE7704700BF72
:1005A00080B500AF0E4A0E4B1B6843F40073136016
:1005B0000B4A0B4B1B6843F480631360084A084BDB
:1005C0001B6843F480731360032000F0F8F80020E8
:1005D00013F032FD13F004FD0023184680BD00BF68
:1005E000003C024080B400AF064B1B781A46064B15
:1005F0001B681344044A136000BFBD465DF8047BCA
:10060000704700BF00000020943F002080B400AF7E
:10061000034B1B681846BD465DF8047B704700BF5E
:10062000943F002080B584B000AF7860FFF7EEFF04
:10063000B8607B68FB60FB68B3F1FF3F05D0094BF6
:100640001B781A46FB681344FB6000BFFFF7DEFF10
:100650000246BB68D21AFB689A42F7D300BF103734
:10066000BD4680BD0000002080B485B000AF78603A
:100670007B6803F00703FB600C4BDB68BB60BA6868
:100680004FF6FF031340BB60FB681A02BB681343BD
:1006900043F0BF6343F40033BB60044ABB68D360DC
:1006A00000BF1437BD465DF8047B704700ED00E0E5
:1006B00080B400AF044BDB681B0A03F00703184645
:1006C000BD465DF8047B704700ED00E080B483B068
:1006D00000AF0346FB7197F90730002B0BDB09498C
:1006E00097F907305B09FA7902F01F02012000FA3E
:1006F00002F241F8232000BF0C37BD465DF8047BB1
:10070000704700BF00E100E080B483B000AF034653
:100710003960FB7197F90730002B0ADB0D4997F917
:1007200007303A68D2B21201D2B20B4483F80023E8
:100730000AE00949FB7903F00F03043B3A68D2B29F
:100740001201D2B20B441A7600BF0C37BD465DF8D9
:10075000047B704700E100E000ED00E080B489B068
:1007600000AFF860B9607A60FB6803F00703FB61D3
:10077000FB69C3F10703042B28BF0423BB61FB699A
:100780000433062B02D9FB69033B00E000237B61A5
:100790000122BB6902FA03F35A1EBB681A407B6947
:1007A0009A4001217B6901FA03F3591E7B680B40D3
:1007B000134318462437BD465DF8047B704780B567
:1007C00082B000AF78607868FFF74EFF00BF08374F
:1007D000BD4680BD80B586B000AF0346B9607A6083
:1007E000FB7300237B61FFF763FF78617A68B96868
:1007F0007869FFF7B3FF024697F90F3011461846A4
:10080000FFF782FF00BF1837BD4680BD80B582B0BC
:1008100000AF0346FB7197F907301846FFF756FF04
:1008200000BF0837BD4680BD80B588B000AF786096
:100830000023FB610023FB60AA4BBB6100237B61AB
:1008400000233B617B68002B01D1012385E17B689C
:1008500093F84430DBB2002B06D17B68002283F88A
:100860004520786812F048FE0023BB609E4A9E4BEC
:100870005B6C43F4804353649B4B5B6C03F4804399
:10088000BB60BB68994A994B5B6823F400035360D3
:100890009649964B5A687B681B6A13434B607B688A
:1008A0001B687A68126802F58052126842F00102F1
:1008B00003F580531A60FFF7A9FE786111E0FFF796
:1008C000A5FE02467B69D31AB3F5FA7F09D97B6886
:1008D000032283F844207B68002283F84520032309
:1008E0003BE17B681B6803F580531B6803F0010341
:1008F000002BE4D17B681B681B69FB61FB6923F05B
:100900001C03FB6101F03EFDB861BB69784A93426C
:1009100008D9BB69774A934204D8FB6943F00803BE
:10092000FB6127E0BB69734A934208D9BB69724AED
:10093000934204D8FB6943F00C03FB611AE0BB69E6
:100940006D4A934203D9BB696C4A934211D9BB6982
:100950006A4A934208D9BB69694A934204D8FB6941
:1009600043F00403FB6105E0FB6943F01003FB6106
:1009700000E000BF7B681B68FA691A614FF400420F
:100980000021786800F019FC0346002B0BD00123EE
:100990003B613969786800F0A5FC7B68012283F827
:1009A00044200123D9E0FF20FFF73CFE7B685B6811
:1009B000002B00F0A780FFF729FE786107F10C03F8
:1009C0001A460121786800F090FBFFF71FFE0246EF
:1009D0007B69D31A41F2883293420FD901233B61DC
:1009E0003969786800F07EFC7B68012283F8442036
:1009F0007B68002283F845200323AEE0FB6803F008
:100A00000403002BDAD04FF480520021786800F004
:100A1000D4FB0346002B0BD001233B613969786876
:100A200000F060FC7B68012283F84420012394E0FD
:100A3000FFF7ECFD786107F10C031A460121786895
:100A400000F053FBFFF7E2FD02467B69D31A41F247
:100A5000883293420FD901233B613969786800F0ED
:100A600041FC7B68012283F844207B68002283F8E4
:100A70004520032371E0FB6803F02003002BDAD04C
:100A800007F10C031A461921786800F02EFB034683
:100A9000002B0BD001233B613969786800F022FC00
:100AA0007B68012283F84420012356E0FB6803F0B1
:100AB0001003002B04D07B684FF40062DA6002E080
:100AC0007B680022DA60FB6803F00403002B03D08C
:100AD0007B6800229A6037E07B684FF480429A601E
:100AE00032E000BF00879303003802400038014025
:100AF000FF2C3101BF0E1602FF869303FFE0F505C0
:100B00007FD1F0087B68DB68DB089AB27B689B6862
:100B10005B089BB213439BB21A460021786800F031
:100B20004CFB0346002B0BD001233B6139697868ED
:100B300000F0D8FB7B68012283F8442001230CE0FD
:100B400040F6FF70FFF76EFD3969786800F0CAFB68
:100B50007B68012283F84420002318462037BD46D5
:100B600080BD00BF80B487B000AFF860B9607A6024
:100B70003B6000237B61FB6893F84530012B01D17A
:100B8000022352E0FB68012283F84520FB68022221
:100B900083F84420FB68BA68DA6200237B6130E0A6
:100BA0007B695B01BA6813443B613B694FF4801277
:100BB0001A607B6940F2F45202FB03F37A68134433
:100BC0001A463B699A60FB68DB69002B05D13B69DB
:100BD0001B6843F440023B691A603B685A1E7B69FC
:100BE0009A4208D97B6901335B01BA6813441A46FB
:100BF0003B69DA6002E0BA683B69DA607B6901331D
:100C00007B617A693B689A42CAD3FB681B68BA6801
:100C100003F5805310331A60FB68012283F84420E7
:100C2000FB68002283F84520002318461C37BD4688
:100C30005DF8047B704780B487B000AFF860B9609E
:100C40007A603B6000237B61FB6893F84530012BA1
:100C500001D1022356E0FB68012283F84520FB689E
:100C6000022283F84420FB68BA689A6200237B6101
:100C700034E07B695B01BA6813443B613B694FF028
:100C800000421A603B6944F2F4525A607B6940F2B8
:100C9000F45202FB03F37A6813441A463B699A60E4
:100CA000FB689B69012B05D13B695B6823F000421F
:100CB0003B695A603B685A1E7B699A4208D97B6936
:100CC00001335B01BA6813441A463B69DA6002E0FB
:100CD000BA683B69DA607B6901337B617A693B689A
:100CE0009A42C6D3FB681B68BA6803F580530C337D
:100CF0001A60FB68012283F84420FB68002283F815
:100D00004520002318461C37BD465DF8047B70471C
:100D100080B487B000AF7860396000237B61002326
:100D2000FB6000233B617B6893F84530012B01D1C8
:100D30000223CDE07B68012283F845207B680222F4
:100D400083F844203B68002B09D17B68012283F89B
:100D500044207B68002283F845200123B8E07B68AB
:100D6000DB6A1B68002B09DA7B68122283F84420B7
:100D70007B68002283F845200123A9E03B6840F20C
:100D8000F452934215D93B68544AA2FB03239B0AB1
:100D90007B613A68514BA3FB02139B0A40F2F4516A
:100DA00001FB03F3D31A002B05D07B6901337B6170
:100DB00001E001237B617B69012B1CD17B68DB6A2D
:100DC0007A68D26A126842F040521A607B68DB6A25
:100DD0003A68C2F30C025A607B68DB6A7A68D26AAE
:100DE000126842F000421A607B68DB6ADB681A46D0
:100DF0007B68DA624BE000233B6144E07B68DB6A9E
:100E00007A68D26A126822F040521A603B69002B5D
:100E100007D17B68DB6A7A68D26A126842F0805236
:100E20001A607B68DB6A40F2F4525A607B695A1E92
:100E30003B699A4216D17B68DB6A7A68D26A12688B
:100E400042F000521A607B69254A02FB03F23B68BC
:100E5000134403F2F453FB607B68DB6AFA68C2F365
:100E60000C025A607B68DB6A7A68D26A126842F0C8
:100E700000421A607B68DB6ADB681A467B68DA62CC
:100E80003B6901333B613A697B699A42B6D37B681F
:100E90001B6803F5805314331B6803F00403002B15
:100EA0000DD07B681B6803F58053143304221A604D
:100EB0007B681B6803F58053043300221A607B684B
:100EC000012283F844207B68002283F84520002318
:100ED00018461C37BD465DF8047B70470BB002AC6A
:100EE0000CFAFFFF80B485B000AF78600023FB6090
:100EF0007B6893F84530012B01D1022374E07B68B5
:100F0000012283F845207B68022283F844205AE0BE
:100F1000FB680133FB607B689B6A1B6803F44073CA
:100F2000B3F5007F0DD17B689A6A7B681A637B6892
:100F300001229A637B689B6ADB681A467B689A6227
:100F400041E07B689B6A1B6803F44073002B0BD164
:100F50007B689B6B5A1C7B689A637B689B6ADB6827
:100F60001A467B689A622EE07B689A6A7B685A63AD
:100F70007B689B6B5A1C7B689A637B689B6B012B1D
:100F800003D17B689A6A7B681A637B689B6A1B68DB
:100F90001B0CC3F30D031A1F7B68DA637B681B6BA2
:100FA0009A687B681A647B689B6ADB681A467B6870
:100FB0009A627B68012283F844207B68002283F8D0
:100FC0004520002310E07B689B6A1B68002B02DB36
:100FD000FB68032B9CD97B68012283F844207B6843
:100FE000002283F84520012318461437BD465DF8DA
:100FF000047B704780B582B000AF78607B681B6867
:1010000003F5805314331B6803F04003402B12D1C7
:10101000786812F037FB7B681B6803F58053143344
:1010200040221A607B68012283F844207B680022FA
:1010300083F845201BE07B681B6803F5805314335D
:101040001B6803F00103012B11D1786800F039F817
:101050007B681B6803F58053143301221A607B6898
:10106000012283F844207B68002283F845207B68B6
:101070001B6803F5805314334FF480321A607B6889
:101080001B6803F5805314331B6803F40043B3F566
:10109000004F12D1786800F01EF87B681B6803F5DA
:1010A000805314334FF400421A607B68012283F8A6
:1010B00044207B68002283F8452000BF0837BD46E6
:1010C00080BD80B483B000AF786000BF0C37BD46F0
:1010D0005DF8047B704780B483B000AF786000BFD8
:1010E0000C37BD465DF8047B704780B586B000AF15
:1010F000F8600B467A607B8100237B6100233B61B3
:10110000FB6893F84430DBB2822B01D1022350E01C
:10111000FB68822283F84420FB681B681B697B61A3
:101120007B6903F01C037B61FB681B8ADB029BB2BB
:101130007A6913437B617B899B0103F4F8637A69C5
:1011400013437B617B6923F002037B617B6943F07E
:1011500001037B61FB681B687A691A61FFF756FA25
:10116000386115E0FFF752FA02463B69D31AB3F52E
:10117000803F09D3FB68012283F84420FB680022EA
:1011800083F84520032314E0FB681B681B697B611F
:101190007B6903F00103002BE4D1FB681B685B69EA
:1011A0009BB21A467B681A60FB68012283F84420D0
:1011B000002318461837BD4680BD80B586B000AF05
:1011C000F8600B467A607B8100237B6100233B61E2
:1011D000FB6893F84430DBB2422B01D102234EE08E
:1011E000FB68422283F84420FB681B681B697B6113
:1011F0007B6903F01C037B61FB681B8ADB029BB2EB
:101200007A6913437B617B899B0103F4F8637A69F4
:1012100013437B617B6943F002037B617B6943F08D
:1012200001037B61FB681B687A6892B25A61FB68B4
:101230001B687A691A61FFF7E9F9386115E0FFF771
:10124000E5F902463B69D31AB3F5803F09D3FB6841
:10125000012283F84420FB68002283F84520032301
:101260000DE0FB681B681B697B617B6903F0010370
:10127000002BE4D1FB68012283F8442000231846A8
:101280001837BD4680BD80B582B000AF78607B68FE
:1012900093F84530012B01D102231FE07B68012226
:1012A00083F845207B68022283F84420786800F0A8
:1012B00019FA786800F033FA786800F07DFA7868F7
:1012C00000F04AFA786800F05FFA7B68012283F840
:1012D00044207B68002283F8452000231846083705
:1012E000BD4680BD80B5B0B000AF786039600023E6
:1012F000C7F8BC303B68002B07D07B684FF4006216
:10130000DA607B684FF480429A600023BB6400235C
:10131000FB6400233B6500237B650023BB65002342
:10132000FB657B68DB69002B03D14FF480633B6670
:1013300001E000233B664FF400737B660023BB662D
:101340000023FB6600233B6700237B670023BB670A
:101350004023FB670023C7F880300023C7F88430A0
:101360000023C7F888300023C7F88C300023C7F863
:1013700090300023C7F894300023C7F8983000233A
:10138000C7F89C308023C7F8A0300023C7F8A430EA
:101390000023C7F8A8300023C7F8AC300023C7F8F3
:1013A000B0300023C7F8B4300023C7F8B8307B68EA
:1013B0001B681B68C7F8BC30D7F8BC20AB4B134088
:1013C000C7F8BC30BA6CFB6C1A433B6D1A437B6D9B
:1013D0001A437B689B681A43BB6D1A43FB6D1A4323
:1013E0007B68DB681A433B6E1A437B6E1A43BB6E05
:1013F0001A43FB6E1A433B6F1343D7F8BC201343C9
:10140000C7F8BC307B681B68D7F8BC201A607B68C3
:101410001B681B68C7F8BC300120FFF703F97B6825
:101420001B68D7F8BC201A607B681B68796FBA6F9D
:101430001143FA6F1143D7F880201143D7F8842065
:101440001143D7F888201143D7F88C201143D7F8DF
:1014500090200A435A607B681B685B68C7F8BC3001
:101460000120FFF7DFF87B681B68D7F8BC205A60C3
:101470007B681B68D7F894209A607B681B68D7F854
:101480009820DA607B681B689B69C7F8BC30D7F886
:10149000BC204FF641731340C7F8BC30D7F89C30DE
:1014A0001A04D7F8A0301A43D7F8A4301A43D7F853
:1014B000A8301A43D7F8AC301A43D7F8B0301343EA
:1014C000D7F8BC201343C7F8BC307B681B68D7F83B
:1014D000BC209A617B681B689B69C7F8BC300120FF
:1014E000FFF7A0F87B681B68D7F8BC209A617B687F
:1014F0001B68D7F8B410D7F8B8200A43DA617B68C4
:101500001B68DB69C7F8BC300120FFF78BF87B68EC
:101510001B68D7F8BC20DA610023BB604FF0007372
:10152000FB6000233B614FF400137B610023BB6130
:101530000023FB6100233B6200237B620423BB6228
:101540004FF00073FB624FF480333B634FF4800332
:101550007B634FF40053BB638023FB6300233B6436
:1015600000237B647B681B6803F5805318331B687A
:10157000C7F8BC30D7F8BC203D4B1340C7F8BC308F
:10158000BA68FB681A433B691A437B691A43BB6913
:101590001A43FB691A433B6A1A437B6A1A43BB6AC4
:1015A0001343D7F8BC201343C7F8BC307B681B68D3
:1015B00003F580531833D7F8BC201A607B681B688A
:1015C00003F5805318331B68C7F8BC300120FFF7C0
:1015D00029F87B681B6803F580531833D7F8BC20C3
:1015E0001A607B681B68F96A3A6B11437A6B114386
:1015F000BA6B1143FA6B11433A6C920011437A6C47
:101600000A4342F4000203F580531A607B681B68AA
:1016100003F580531B68C7F8BC300120FFF702F8C0
:101620007B681B6803F58053D7F8BC201A607B6881
:101630009B69012B0FD17B6819687B681B6803F5D8
:1016400080531C331B6843F4803242F0400201F5A2
:1016500080531C331A607B685B691A4600217868E6
:1016600000F008F800BFC037BD4680BD0F8120FFE5
:10167000233FDEF880B487B000AFF860B9607A60CD
:101680007B6805331B781B027A6804321278134397
:101690007B61BA68114B13441A467B6913607B68FF
:1016A00003331B781A067B6802331B781B041A432A
:1016B0007B6801331B781B0213437A68127813434B
:1016C0007B61BA68064B13441A467B69136000BFFE
:1016D0001C37BD465DF8047B704700BF4080024068
:1016E0004480024080B584B000AF78600023FB6086
:1016F0007B681B687A681268126842F008021A60F8
:101700007B681B681B68FB60012000F07FF87B682A
:101710001B68FA681A6000BF1037BD4680BD80B5EF
:1017200084B000AF78600023FB607B681B687A6838
:101730001268126842F004021A607B681B681B681A
:10174000FB60012000F062F87B681B68FA681A6091
:1017500000BF1037BD4680BD80B483B000AF786055
:101760007B6819687B681B6803F5805318331B6816
:1017700043F4005201F5805318331A6000BF0C3750
:10178000BD465DF8047B704780B483B000AF7860DD
:101790007B6819687B681B6803F5805318331B68E6
:1017A00043F0020201F5805318331A6000BF0C3772
:1017B000BD465DF8047B704780B584B000AF7860AB
:1017C0000023FB607B6819687B681B6803F5805306
:1017D00018331B6843F4801201F5805318331A60E4
:1017E0007B681B6803F5805318331B68FB6001207E
:1017F00000F00CF87B681B68FA6803F58053183317
:101800001A6000BF1037BD4680BD000080B485B0AF
:1018100000AF78600A4B1B680A4AA2FB03235B0AED
:101820007A6802FB03F3FB6000BFFB685A1EFA6094
:10183000002BF9D100BF1437BD465DF8047B70471B
:1018400018000020D34D621080B489B000AF7860DA
:10185000396000237B6100233B610023BB610023CF
:10186000FB6177E10122FB6902FA03F37B613B68CC
:101870001A687B6913403B613A697B699A4240F080
:1018800066813B685B68022B03D03B685B68122B68
:1018900023D1FB69DA087B68083253F82230BB6138
:1018A000FB6903F007039B000F2202FA03F3DB43FB
:1018B000BA691340BB613B681A69FB6903F007030F
:1018C0009B0002FA03F3BA691343BB61FB69DA08B0
:1018D0007B680832B96943F822107B681B68BB61DA
:1018E000FB695B00032202FA03F3DB43BA6913408E
:1018F000BB613B685B6803F00302FB695B0002FAB3
:1019000003F3BA691343BB617B68BA691A603B6829
:101910005B68012B0BD03B685B68022B07D03B68F0
:101920005B68112B03D03B685B68122B30D17B685E
:101930009B68BB61FB695B00032202FA03F3DB4394
:10194000BA691340BB613B68DA68FB695B0002FA65
:1019500003F3BA691343BB617B68BA699A607B6819
:101960005B68BB610122FB6902FA03F3DB43BA69DE
:101970001340BB613B685B681B0903F00102FB6914
:1019800002FA03F3BA691343BB617B68BA695A6010
:101990007B68DB68BB61FB695B00032202FA03F32F
:1019A000DB43BA691340BB613B689A68FB695B0023
:1019B00002FA03F3BA691343BB617B68BA69DA6060
:1019C0003B685B6803F08053002B00F0C08000236D
:1019D000FB60654A644B5B6C43F480435364624B29
:1019E0005B6C03F48043FB60FB68604AFB699B0807
:1019F000023352F82330BB61FB6903F003039B0001
:101A00000F2202FA03F3DB43BA691340BB617B6820
:101A1000574A934237D07B68564A934231D07B680D
:101A2000554A93422BD07B68544A934225D07B6819
:101A3000534A93421FD07B68524A934219D07B6825
:101A4000514A934213D07B68504A93420DD07B6831
:101A50004F4A934207D07B684E4A934201D10923F3
:101A600012E00A2310E008230EE007230CE006230F
:101A70000AE0052308E0042306E0032304E0022330
:101A800002E0012300E00023FA6902F00302920061
:101A90009340BA691343BB613449FB699B08023325
:101AA000BA6941F823203C4B1B68BB613B69DB43AF
:101AB000BA691340BB613B685B6803F48033002B59
:101AC00003D0BA693B691343BB61334ABB691360F6
:101AD000314B5B68BB613B69DB43BA691340BB6157
:101AE0003B685B6803F40033002B03D0BA693B69A1
:101AF0001343BB61284ABB695360274B9B68BB619A
:101B00003B69DB43BA691340BB613B685B6803F424
:101B10008013002B03D0BA693B691343BB611E4A93
:101B2000BB6993601C4BDB68BB613B69DB43BA69F3
:101B30001340BB613B685B6803F40013002B03D0C8
:101B4000BA693B691343BB61134ABB69D360FB6944
:101B50000133FB61FB690F2B7FF684AE00BF243796
:101B6000BD465DF8047B70470038024000380140F4
:101B7000000002400004024000080240000C024045
:101B8000001002400014024000180240001C0240F5
:101B90000020024000240240003C014080B483B099
:101BA00000AF78600B467B8013467B707B78002B00
:101BB00003D07A887B689A6103E07B881A047B688B
:101BC0009A6100BF0C37BD465DF8047B704700008A
:101BD00080B586B000AF78607B68002B01D101230F
:101BE0002DE27B681B6803F00103002B75D0A34B2B
:101BF0009B6803F00C03042B0CD0A04B9B6803F0F4
:101C00000C03082B12D19D4B5B6803F48003B3F5E2
:101C1000800F0BD1994B1B6803F40033002B5BD072
:101C20007B685B68002B57D1012308E27B685B6807
:101C3000B3F5803F06D1914A904B1B6843F4803343
:101C400013601DE07B685B68B3F5A02F0CD18B4A55
:101C50008A4B1B6843F480231360884A874B1B68B8
:101C600043F4803313600BE0844A844B1B6823F4F5
:101C700080331360814A814B1B6823F480231360F7
:101C80007B685B68002B13D0FEF7C0FC386108E06E
:101C9000FEF7BCFC02463B69D31A642B01D903232F
:101CA000CDE1764B1B6803F40033002BF0D014E039
:101CB000FEF7ACFC386108E0FEF7A8FC02463B6981
:101CC000D31A642B01D90323B9E16C4B1B6803F4CD
:101CD0000033002BF0D100E000BF7B681B6803F0ED
:101CE0000203002B63D0654B9B6803F00C03002BB1
:101CF0000BD0624B9B6803F00C03082B1CD15F4B8D
:101D00005B6803F48003002B16D15C4B1B6803F067
:101D10000203002B05D07B68DB68012B01D0012377
:101D20008DE15649554B1B6823F0F8027B681B690F
:101D3000DB0013430B603AE07B68DB68002B20D0AC
:101D40004F4B01221A60FEF761FC386108E0FEF794
:101D50005DFC02463B69D31A022B01D903236EE1D5
:101D6000464B1B6803F00203002BF0D04349434B62
:101D70001B6823F0F8027B681B69DB0013430B60D0
:101D800015E03F4B00221A60FEF740FC386108E086
:101D9000FEF73CFC02463B69D31A022B01D9032310
:101DA0004DE1364B1B6803F00203002BF0D17B683A
:101DB0001B6803F00803002B30D07B685B69002BA5
:101DC00016D0304B01221A60FEF720FC386108E083
:101DD000FEF71CFC02463B69D31A022B01D90323F0
:101DE0002DE1264B5B6F03F00203002BF0D015E0D2
:101DF000244B00221A60FEF709FC386108E0FEF768
:101E000005FC02463B69D31A022B01D9032316E1D4
:101E10001A4B5B6F03F00203002BF0D17B681B6849
:101E200003F00403002B00F0A0800023FB75134B8C
:101E30001B6C03F08053002B0FD10023FB600F4A73
:101E40000E4B1B6C43F0805313640C4B1B6C03F064
:101E50008053FB60FB680123FB750B4B1B6803F48D
:101E60008073002B21D1084A074B1B6843F4807311
:101E70001360FEF7CBFB386111E000BF0038024071
:101E800000004742800E474200700040FEF7BEFB54
:101E900002463B69D31A022B01D90323CFE06A4BD8
:101EA0001B6803F48073002BF0D07B689B68012BC8
:101EB00006D1664A654B1B6F43F0010313671CE0B4
:101EC0007B689B68052B0CD1604A604B1B6F43F00D
:101ED000040313675D4A5D4B1B6F43F001031367F7
:101EE0000BE05A4A594B1B6F23F001031367574A03
:101EF000564B1B6F23F0040313677B689B68002B12
:101F000015D0FEF783FB38610AE0FEF77FFB02463F
:101F10003B69D31A41F28832934201D903238EE000
:101F20004A4B1B6F03F00203002BEED014E0FEF7C8
:101F30006DFB38610AE0FEF769FB02463B69D31A84
:101F400041F28832934201D9032378E03F4B1B6F63
:101F500003F00203002BEED1FB7D012B05D13B4AA0
:101F60003A4B1B6C23F0805313647B689B69002BF6
:101F700064D0364B9B6803F00C03082B5CD07B6865
:101F80009B69022B41D1324B00221A60FEF73EFBC7
:101F9000386108E0FEF73AFB02463B69D31A022B90
:101FA00001D903234BE0294B1B6803F00073002B7E
:101FB000F0D126497B68DA697B681B6A1A437B6823
:101FC0005B6A9B011A437B689B6A5B08013B1B04AD
:101FD0001A437B68DB6A1B0613434B601C4B0122D0
:101FE0001A60FEF713FB386108E0FEF70FFB0246AC
:101FF0003B69D31A022B01D9032320E0134B1B6842
:1020000003F00073002BF0D018E0114B00221A608F
:10201000FEF7FCFA386108E0FEF7F8FA02463B6981
:10202000D31A022B01D9032309E0084B1B6803F0E4
:102030000073002BF0D101E0012300E000231846DB
:102040001837BD4680BD00BF007000400038024018
:102050006000474280B584B000AF786039607B682B
:10206000002B01D10123CAE0674B1B6803F00F026C
:102070003B689A420CD2644B3A68D2B21A70624BF7
:102080001B6803F00F023B689A4201D00123B6E0BF
:102090007B681B6803F00203002B20D07B681B6861
:1020A00003F00403002B05D0584A584B9B6843F4B7
:1020B000E05393607B681B6803F00803002B05D096
:1020C000524A524B9B6843F4604393604F494F4BD5
:1020D0009B6823F0F0027B689B6813438B607B68EE
:1020E0001B6803F00103002B44D07B685B68012B65
:1020F00007D1464B1B6803F40033002B19D1012391
:102100007DE07B685B68022B03D07B685B68032BF8
:1021100007D13E4B1B6803F00073002B09D101234C
:102120006DE03A4B1B6803F00203002B01D1012341
:1021300065E03649354B9B6823F003027B685B689A
:1021400013438B60FEF762FAF8600AE0FEF75EFA6E
:102150000246FB68D31A41F28832934201D9032325
:102160004DE02A4B9B6803F00C027B685B689B0088
:102170009A42EBD1244B1B6803F00F023B689A4252
:102180000CD9214B3A68D2B21A701F4B1B6803F06E
:102190000F023B689A4201D0012330E07B681B6844
:1021A00003F00403002B08D01849184B9B6823F454
:1021B000E0527B68DB6813438B607B681B6803F02D
:1021C0000803002B09D01149104B9B6823F460428F
:1021D0007B681B69DB0013438B6000F01DF8014630
:1021E0000A4B9B681B0903F00F03094AD35C21FAD1
:1021F00003F3084A1360002011F01EFF0023184665
:102200001037BD4680BD00BF003C02400038024090
:102210006C800108180000202DE9F04F87B000AF56
:102220000022FA6000227A610022BA6000223A613C
:10223000514A926802F00C02042A07D0082A08D0FA
:10224000002A40F090804D4B3B618FE04C4B3B614E
:102250008CE0494A526802F03F02FA60464A5268EE
:1022600002F48002002A23D0434B5B689B094FF0A5
:10227000000440F2FF114FF0000203EA010304EAF8
:1022800002043F4A02FB04F1002202FB03F20A446B
:102290003B49A3FB010153181946FB684FF00004AA
:1022A0001A462346FDF7F4FF03460C467B614CE0DB
:1022B000314A5268920911464FF0000240F2FF1570
:1022C0004FF0000605EA010506EA020629463246F5
:1022D0004FEA421B4BEAD16B4FEA411A51465A462C
:1022E000AA46B34655465E464D1B62EB0606294696
:1022F0003246940144EA91648B015B1A64EB020458
:102300004FEAC40949EA53794FEAC30843464C46A9
:1023100055465E46ED1846EB04062B463446A202AF
:102320007A607A6842EA93527A609B023B6097E84F
:10233000180018462146FB684FF000041A46234651
:10234000FDF7A6FF03460C467B610B4B5B681B0C3D
:1023500003F0030301335B00BB607A69BB68B2FB27
:10236000F3F33B6102E0054B3B6100BF3B6918465C
:102370001C37BD46BDE8F08F003802400024F40051
:1023800040787D0180B400AF034B1B681846BD4602
:102390005DF8047B704700BF1800002080B500AFD7
:1023A000FFF7F0FF0146054B9B685B0B03F007034B
:1023B000034AD35C21FA03F3184680BD003802407B
:1023C0007C80010880B483B000AF786039607B689E
:1023D0000F221A60124B9B6803F003027B685A605D
:1023E0000F4B9B6803F0F0027B689A600C4B9B6874
:1023F00003F4E0527B68DA60094B9B68DB0803F466
:10240000E0527B681A61074B1B6803F00F023B68C0
:102410001A6000BF0C37BD465DF8047B704700BFF3
:1024200000380240003C024080B582B000AF7860C6
:102430007B68002B01D101231DE07B6893F83D30C0
:10244000DBB2002B06D17B68002283F83C20786841
:1024500000F015F87B68022283F83D207B681A683B
:102460007B6804331946104600F068F97B68012246
:1024700083F83D20002318460837BD4680BD80B450
:1024800083B000AF786000BF0C37BD465DF8047BB9
:10249000704780B485B000AF78607B681B687A684D
:1024A0001268D26842F00102DA607B681B689B68A0
:1024B00003F00703FB60FB68062B07D07B681B68F3
:1024C0007A681268126842F001021A600023184606
:1024D0001437BD465DF8047B704780B582B000AF0D
:1024E00078607B681B681B6903F00203022B22D112
:1024F0007B681B68DB6803F00203022B1BD17B683F
:102500001B686FF002021A617B6801221A777B68F0
:102510001B689B6903F00303002B03D0786800F06D
:10252000EEF805E0786800F0E0F8786800F0F1F87F
:102530007B6800221A777B681B681B6903F0040321
:10254000042B22D17B681B68DB6803F00403042B97
:102550001BD17B681B686FF004021A617B68022242
:102560001A777B681B689B6903F44073002B03D0C8
:10257000786800F0C4F805E0786800F0B6F878688C
:1025800000F0C7F87B6800221A777B681B681B691C
:1025900003F00803082B22D17B681B68DB6803F07B
:1025A0000803082B1BD17B681B686FF008021A61B7
:1025B0007B6804221A777B681B68DB6903F00303DE
:1025C000002B03D0786800F09AF805E0786800F0F6
:1025D0008CF8786800F09DF87B6800221A777B6899
:1025E0001B681B6903F01003102B22D17B681B684A
:1025F000DB6803F01003102B1BD17B681B686FF0A6
:1026000010021A617B6808221A777B681B68DB69F5
:1026100003F44073002B03D0786800F070F805E0F5
:10262000786800F062F8786800F073F87B68002240
:102630001A777B681B681B6903F00103012B0ED11D
:102640007B681B68DB6803F00103012B07D17B6803
:102650001B686FF001021A61786811F0A7FC7B68B3
:102660001B681B6903F08003802B0ED17B681B68FD
:10267000DB6803F08003802B07D17B681B686FF059
:1026800080021A61786800F003F97B681B681B6997
:1026900003F04003402B0ED17B681B68DB6803F01E
:1026A0004003402B07D17B681B686FF040021A6122
:1026B000786800F038F87B681B681B6903F020031A
:1026C000202B0ED17B681B68DB6803F02003202BD6
:1026D00007D17B681B686FF020021A61786800F0F0
:1026E000CDF800BF0837BD4680BD80B483B000AFD1
:1026F000786000BF0C37BD465DF8047B704780B43E
:1027000083B000AF786000BF0C37BD465DF8047B36
:10271000704780B483B000AF786000BF0C37BD460F
:102720005DF8047B704780B483B000AF786000BF71
:102730000C37BD465DF8047B7047000080B485B05F
:1027400000AF786039607B681B68FB607B68404A3B
:10275000934213D07B68B3F1804F0FD07B683D4A22
:1027600093420BD07B683C4A934207D07B683B4A3C
:10277000934203D07B683A4A934208D1FB6823F026
:102780007003FB603B685B68FA681343FB607B681F
:102790002F4A93422BD07B68B3F1804F27D07B68C0
:1027A0002C4A934223D07B682B4A93421FD07B68EC
:1027B0002A4A93421BD07B68294A934217D07B68F0
:1027C000284A934213D07B68274A93420FD07B68F4
:1027D000264A93420BD07B68254A934207D07B68F8
:1027E000244A934203D07B68234A934208D1FB6872
:1027F00023F44073FB603B68DB68FA681343FB60BB
:10280000FB6823F080023B685B691343FB607B68D5
:10281000FA681A603B689A687B68DA623B681A68F3
:102820007B689A627B680A4A934203D07B680C4AB1
:10283000934203D13B681A697B681A637B68012263
:102840005A6100BF1437BD465DF8047B704700BF76
:10285000000001400004004000080040000C00405F
:102860000004014000400140004401400048014094
:1028700000180040001C00400020004080B483B0DD
:1028800000AF786000BF0C37BD465DF8047B704731
:1028900080B483B000AF786000BF0C37BD465DF8F0
:1028A000047B704780B485B000AF0346FB800023F3
:1028B000FB60B7F90630842B05D0B7F90620FB681A
:1028C00013440333FB60FB6818461437BD465DF8BC
:1028D000047B704780B483B000AFEFF305837B6067
:1028E0007B68002B14BF01230023DBB218460C3792
:1028F000BD465DF8047B704780B500AF01F0BEFFB8
:102900000023184680BD80B500AFFFF7E3FF034604
:10291000002B03D002F0B2F8034602E002F09EF86A
:102920000346184680BDF0B587B002AF78603960C5
:102930007B685C687B681D687B681B699EB27B68EE
:10294000B3F908301846FFF7ADFF024607F10C0354
:10295000019300923B6832462946204601F030FE42
:102960000346012B01D0002300E0FB681846143712
:10297000BD46F0BD80B584B000AF78607B68FB6079
:10298000FB68002B01D0FB6800E00123184601F032
:1029900041FF002318461037BD4680BD80B582B088
:1029A00000AF7860012000F0D3FF034618460837D7
:1029B000BD4680BD80B584B000AF7860396000232B
:1029C000BB607B68002B01D180233AE00023FB60D1
:1029D0003B68B3F1FF3F03D14FF0FF33FB6009E0E9
:1029E0003B68002B06D03B68FB60FB68002B01D1E5
:1029F0000123FB60FFF76EFF0346002B17D007F1A2
:102A000008031A460021786801F0B6FB0346012B43
:102A100001D0FF2315E0BB68002B11D00B4B4FF00A
:102A200080521A60BFF34F8FBFF36F8F08E0F968D1
:102A3000786801F099FA0346012B01D0FF2300E0EA
:102A4000002318461037BD4680BD00BF04ED00E0EE
:102A500080B584B000AF78600023FB600023BB60CA
:102A6000FFF738FF0346002B16D007F1080319467D
:102A7000786801F013F90346012B01D0FF2317E01A
:102A8000BB68002B13D00C4B4FF080521A60BFF381
:102A90004F8FBFF36F8F0AE0002300220021786878
:102AA00000F06EFF0346012B01D0FF23FB60FB68A3
:102AB00018461037BD4680BD04ED00E080B584B0F7
:102AC00000AF786039603B68012B10D103220021F0
:102AD000012000F0CBFEF860FB68002B05D000233E
:102AE00000220021F86800F04BFFFB6800E00023A3
:102AF00018461037BD4680BD80B584B000AF786001
:102B000039600023BB607B68002B01D180233AE051
:102B10000023FB603B68B3F1FF3F03D14FF0FF336D
:102B2000FB6009E03B68002B06D03B68FB60FB685C
:102B3000002B01D10123FB60FFF7CCFE0346002BE5
:102B400017D007F108031A460021786801F014FB3A
:102B50000346012B01D0FF2315E0BB68002B11D0E9
:102B60000B4B4FF080521A60BFF34F8FBFF36F8F44
:102B700008E0F968786801F0F7F90346012B01D005
:102B8000FF2300E0002318461037BD4680BD00BF7C
:102B900004ED00E080B584B000AF78600023FB60F6
:102BA0000023BB60FFF796FE0346002B16D007F10B
:102BB00008031946786801F071F80346012B01D02B
:102BC000FF2317E0BB68002B13D00C4B4FF0805253
:102BD0001A60BFF34F8FBFF36F8F0AE0002300220C
:102BE0000021786800F0CCFE0346012B01D0FF23C2
:102BF000FB60FB6818461037BD4680BD04ED00E061
:102C000080B582B000AF7860FFF764FE0346002B0A
:102C100001D0822303E0786801F063FB00231846AB
:102C20000837BD4680BD80B582B000AF786039609E
:102C30007B6818687B685B680022194600F016FE06
:102C4000034618460837BD4680BD000080B586B0F3
:102C500000AFF860B9607A6000233B617B687B61FC
:102C60007B69002B01D101237B61FFF733FE034613
:102C7000002B18D007F1100207F108010023F868B3
:102C800000F078FF0346012B01D0FF2318E03B69D9
:102C9000002B14D00C4B4FF080521A60BFF34F8FB3
:102CA000BFF36F8F0BE007F1080100237A69F86822
:102CB00000F066FE0346012B01D0FF2300E0002355
:102CC00018461837BD4680BD04ED00E090B58BB0C6
:102CD00000AFF860B9607A60BB68FB610023BB613C
:102CE000BB68002B0AD180237B61FB681C4607F17F
:102CF000140393E8070084E8070054E000233B62D4
:102D000000237B627B68B3F1FF3F03D14FF0FF33B9
:102D10007B6209E07B68002B06D07B687B627B6A64
:102D2000002B01D101237B62FFF7D4FD0346002B6A
:102D30001CD007F1200207F1140304331946B868C8
:102D400001F01AFA0346012B02D110237B6101E046
:102D500000237B613B6A002B1DD0154B4FF0805246
:102D60001A60BFF34F8FBFF36F8F14E007F11403A6
:102D700004337A6A1946B86801F01AF80346012B41
:102D800002D110237B6106E07B6A002B01D1002376
:102D900000E040237B61FB681C4607F1140393E8C5
:102DA000070084E80700F8682C37BD4690BD00BFD7
:102DB00004ED00E080B582B000AF7860FFF78AFDD7
:102DC0000346002B04D0786801F070FA034603E054
:102DD000786801F04EFA034618460837BD4680BDB4
:102DE00080B582B000AF7860FFF774FD0346002B1A
:102DF00001D0822303E0786801F073FA00231846BB
:102E00000837BD4680BD80B483B000AF78607B6872
:102E100003F108027B685A607B684FF0FF329A60CA
:102E20007B6803F108027B68DA607B6803F10802C3
:102E30007B681A617B6800221A6000BF0C37BD46B0
:102E40005DF8047B704780B483B000AF78607B6826
:102E500000221A6100BF0C37BD465DF8047B704745
:102E600080B485B000AF786039607B685B68FB60D8
:102E70003B68FA685A60FB689A683B689A60FB682E
:102E80009B683A685A60FB683A689A603B687A685F
:102E90001A617B681B685A1C7B681A6000BF143774
:102EA000BD465DF8047B704780B485B000AF7860A4
:102EB00039603B681B68BB60BB68B3F1FF3F03D15F
:102EC0007B681B69FB600CE07B680833FB6002E0F9
:102ED000FB685B68FB60FB685B681A68BB689A42CA
:102EE000F6D9FB685A683B685A603B685B683A6889
:102EF0009A603B68FA689A60FB683A685A603B6877
:102F00007A681A617B681B685A1C7B681A6000BF6C
:102F10001437BD465DF8047B704780B485B000AFC0
:102F200078607B681B69FB607B685B687A68926885
:102F30009A607B689B687A6852685A60FB685A6836
:102F40007B689A4203D17B689A68FB685A607B6809
:102F500000221A61FB681B685A1EFB681A60FB6836
:102F60001B6818461437BD465DF8047B70470000A7
:102F700080B485B000AFF860B9607A60FB68043B4C
:102F8000FB60FB684FF080721A60FB68043BFB60DB
:102F9000BB6823F00102FB681A60FB68043BFB601E
:102FA0000C4AFB681A60FB68143BFB607A68FB689C
:102FB0001A60FB68043BFB60FB686FF002021A605A
:102FC000FB68203BFB60FB6818461437BD465DF884
:102FD000047B7047D92F000880B485B000AF002370
:102FE0007B60114B1B68B3F1FF3F09D04FF05003DA
:102FF00083F31188BFF36F8FBFF34F8FFB60FEE742
:103000004FF0500383F31188BFF36F8FBFF34F8FDF
:10301000BB6000BF7B68002BFCD000BF1437BD46EF
:103020005DF8047B704700BF040000200000000032
:10303000074B19680868B0E8F04F80F30988BFF3C0
:103040006F8F4FF0000080F311887047AFF300805E
:10305000BC3C002000BF00BF08480068006880F347
:1030600008884FF0000080F3148862B661B6BFF3A1
:103070004F8FBFF36F8F00DF00BF00BF08ED00E090
:1030800080B586B000AF444B1B68444A934209D1D7
:103090004FF0500383F31188BFF36F8FBFF34F8F4F
:1030A0003B61FEE73C4B1B683D4A934209D14FF020
:1030B000500383F31188BFF36F8FBFF34F8FFB6013
:1030C000FEE7384B7B617B691B78DBB27B607B69F9
:1030D000FF221A707B691B78DBB2FB70FB78DBB2D6
:1030E00003F05003DAB2304B1A70304B07221A60EB
:1030F00009E02E4B1B68013B2C4A1360FB78DBB2C6
:103100005B00DBB2FB70FB78DBB203F08003802B4B
:10311000EFD0264B1B68C3F10703042B09D04FF0F7
:10312000500383F31188BFF36F8FBFF34F8FBB60E2
:10313000FEE71E4B1B681B021C4A13601B4B1B68DF
:1031400003F4E063194A13607B68DAB27B691A7092
:10315000174A174B1B6843F470031360144A144B4F
:103160001B6843F07043136000F0D6F8114B002247
:103170001A6000F0F5F8104A0F4B1B6843F040430B
:103180001360FFF769FF01F047FDFFF725FF0023FC
:1031900018461837BD4680BD00ED00E071C20F41F2
:1031A00070C20F4100E400E09C000020A00000205D
:1031B00020ED00E00400002034EF00E080B483B094
:1031C00000AF4FF0500383F31188BFF36F8FBFF34D
:1031D0004F8F7B600E4B1B6801330D4A13600C4B05
:1031E0001B68012B0ED10B4B1B68DBB2002B09D0E7
:1031F0004FF0500383F31188BFF36F8FBFF34F8FEE
:103200003B60FEE700BF0C37BD465DF8047B7047AE
:103210000400002004ED00E080B483B000AF114B47
:103220001B68002B09D14FF0500383F31188BFF3C3
:103230006F8FBFF34F8F7B60FEE70A4B1B68013B2C
:10324000084A1360074B1B68002B04D100233B6026
:103250003B6883F3118800BF0C37BD465DF8047BE3
:10326000704700BF040000200000000000000000C4
:10327000EFF30980BFF36F8F154B1A681EF0100F24
:1032800008BF20ED108A20E9F04F10602DE90900F9
:103290004FF0500080F31188BFF34F8FBFF36F8F53
:1032A00001F0BAFC4FF0000080F3118809BC1968E6
:1032B0000868B0E8F04F1EF0100F08BFB0EC108A9D
:1032C00080F30988BFF36F8F704700BFAFF30080B2
:1032D000BC3C002000BF00BF80B582B000AF4FF003
:1032E000500383F31188BFF36F8FBFF34F8F7B6061
:1032F00001F0D6FB0346002B03D0064B4FF0805263
:103300001A6000233B603B6883F3118800BF0837D5
:10331000BD4680BD04ED00E080B400AF0B4B002241
:103320001A600B4B00221A600A4A0B4B1B680B49B0
:10333000A1FB03139B09013B1360044B07221A6096
:1033400000BFBD465DF8047B704700BF10E000E0A1
:1033500018E000E014E000E018000020D34D6210F7
:10336000DFF80C00016841F470010160704700BF94
:1033700088ED00E080B485B000AFEFF30583FB601B
:10338000FB680F2B13D9164AFB6813441B78FB729A
:10339000144B1B78FA7A9A4209D24FF0500383F308
:1033A0001188BFF36F8FBFF34F8F7B60FEE70E4B2B
:1033B0001B6803F4E0620D4B1B689A4209D94FF079
:1033C000500383F31188BFF36F8FBFF34F8F3B60C0
:1033D000FEE700BF1437BD465DF8047B704700BFB1
:1033E000F0E300E09C0000200CED00E0A0000020D5
:1033F00080B58AB000AF78600023FB6101F084FAE9
:10340000574B1B68002B01D100F00CF9554B1A6883
:103410007B681340002B40F08C807B68002B1CD015
:1034200008227B6813447B607B6803F00703002B52
:1034300013D07B6823F0070308337B607B6803F0BD
:103440000703002B09D04FF0500383F31188BFF31B
:103450006F8FBFF34F8F7B61FEE77B68002B68D0D7
:10346000414B1B687A689A4263D8404B3B623F4BA2
:103470001B687B6204E07B6A3B627B6A1B687B6241
:103480007B6A5A687B689A4203D27B6A1B68002B6E
:10349000F1D1334B1B687A6A9A424AD03B6A1B6867
:1034A00008221344FB617B6A1A683B6A1A607B6AD4
:1034B0005A687B68D21A08235B009A421ED97A6A3E
:1034C0007B681344BB61BB6903F00703002B09D081
:1034D0004FF0500383F31188BFF36F8FBFF34F8F0B
:1034E0003B61FEE77B6A5A687B68D21ABB695A6007
:1034F0007B6A7A685A60B86900F0F6F81A4B1A6865
:103500007B6A5B68D31A184A1360174B1A68184B0A
:103510001B689A4203D2144B1B68154A13607B6ADE
:103520005A68104B1B681A437B6A5A607B6A0022F8
:103530001A6001F0F7F9FB6903F00703002B09D0CB
:103540004FF0500383F31188BFF36F8FBFF34F8F9A
:10355000FB60FEE7FB6918462837BD4680BD00BF0B
:10356000AC3C0020B83C0020B03C0020A43C002033
:10357000B43C002080B586B000AF78607B687B618A
:103580007B68002B46D008235B427A6913447B6139
:103590007B693B613B695A68204B1B681340002BD9
:1035A00009D14FF0500383F31188BFF36F8FBFF33E
:1035B0004F8FFB60FEE73B691B68002B09D04FF083
:1035C000500383F31188BFF36F8FBFF34F8FBB603E
:1035D000FEE73B695A68114B1B681340002B19D05A
:1035E0003B691B68002B15D13B695A680B4B1B6864
:1035F000DB431A403B695A6001F086F93B695A681F
:10360000074B1B681344064A1360386900F06CF8D6
:1036100001F088F900BF1837BD4680BDB83C0020D6
:10362000B03C002080B485B000AF4FF47053BB6055
:10363000274BFB60FB6803F00703002B0CD0FB68F3
:103640000733FB60FB6823F00703FB60BA68FB6885
:10365000D31A1F4A1344BB60FB687B601D4A7B681A
:1036600013601C4B00225A607A68BB681344FB60ED
:103670000822FB689B1AFB60FB6823F00703FB60D2
:10368000FB68154A1360144B1B6800225A60124BEA
:103690001B6800221A607B683B603B68FA68D21A9C
:1036A0003B685A600C4B1A683B681A603B685B6861
:1036B0000A4A13603B685B68094A1360094B4FF084
:1036C00000421A6000BF1437BD465DF8047B7047A6
:1036D000A4000020A43C0020AC3C0020B43C00200E
:1036E000B03C0020B83C002080B485B000AF7860CA
:1036F000284BFB6002E0FB681B68FB60FB681A68F4
:103700007B689A42F7D3FB68BB60FB685B68BA686A
:103710001A447B689A4208D1FB685A687B685B68E8
:103720001A44FB685A60FB687B607B68BB607B68FF
:103730005B68BA681A44FB681B689A4218D1FB6838
:103740001A68154B1B689A420DD07B685A68FB6853
:103750001B685B681A447B685A60FB681B681A68C0
:103760007B681A6008E00C4B1A687B681A6003E0FB
:10377000FB681A687B681A60FA687B689A4202D014
:10378000FB687A681A6000BF1437BD465DF8047B99
:10379000704700BFA43C0020AC3C002080B584B042
:1037A00000AF786039607B68FB60FB68002B09D153
:1037B0004FF0500383F31188BFF36F8FBFF34F8F28
:1037C000BB60FEE7FFF7FAFCFB681A68FB68DB6B7F
:1037D000F968096C01FB03F31A44FB685A60FB6843
:1037E00000229A63FB681A68FB689A60FB681A6893
:1037F000FB68DB6B013BF968096C01FB03F31A44BE
:10380000FB68DA60FB68FF2283F84420FB68FF2234
:1038100083F845203B68002B14D1FB681B69002B03
:103820001AD0FB681033184601F074FA0346002BD7
:1038300012D00D4B4FF080521A60BFF34F8FBFF381
:103840006F8F09E0FB6810331846FFF7DCFAFB685E
:1038500024331846FFF7D7FAFFF7DEFC012318469A
:103860001037BD4680BD00BF04ED00E080B58AB0D2
:1038700002AFF860B9601346FB71FB68002B09D1F9
:103880004FF0500383F31188BFF36F8FBFF34F8F57
:103890003B61FEE7BB68002B02D10023FB6104E023
:1038A000FB68BA6802FB03F3FB61FB694833184607
:1038B000FFF79EFDB861BB69002B0BD0BB69483395
:1038C0007B61FA79BB69009313467A69B968F86835
:1038D00000F005F8BB6918462037BD4680BD80B5AD
:1038E00084B000AFF860B9607A60FB70BB68002BF1
:1038F00003D1BB69BA691A6002E0BB697A681A60D1
:10390000BB69FA68DA63BB69BA681A640121B869ED
:10391000FFF744FF00BF1037BD4680BD80B582B0C1
:1039200000AF78607B68002B0ED07B6800225A6065
:103930007B6800221A607B680022DA600023002284
:103940000021786800F01CF800BF0837BD4680BD34
:1039500080B586B000AF0346FB7101237B61002375
:103960003B61FB791A4639697869FFF77FFFF86098
:10397000F868FFF7D3FFFB6818461837BD4680BDCF
:1039800080B58EB000AFF860B9607A603B6000230C
:103990007B63FB683B633B6B002B09D14FF050030B
:1039A00083F31188BFF36F8FBFF34F8FBB62FEE7C6
:1039B000BB68002B03D13B6B1B6C002B01D1012397
:1039C00000E00023002B09D14FF0500383F311884E
:1039D000BFF36F8FBFF34F8F7B62FEE73B68022B15
:1039E00003D13B6BDB6B012B01D1012300E00023F2
:1039F000002B09D14FF0500383F31188BFF36F8F71
:103A0000BFF34F8F3B62FEE701F022FB0346002B22
:103A100002D17B68002B01D1012300E00023002BA1
:103A200009D14FF0500383F31188BFF36F8FBFF3B9
:103A30004F8FFB61FEE7FFF7C1FB3B6B9A6B3B6B64
:103A4000DB6B9A4202D33B68022B29D13A68B968F2
:103A5000386B00F07BFCF8623B6B5B6A002B10D08C
:103A60003B6B2433184601F055F90346002B13D065
:103A70003F4B4FF080521A60BFF34F8FBFF36F8FF1
:103A80000AE0FB6A002B07D0394B4FF080521A60D6
:103A9000BFF34F8FBFF36F8FFFF7BEFB012363E0D0
:103AA0007B68002B03D1FFF7B7FB00235CE07B6B47
:103AB000002B06D107F11403184601F08DF90123FC
:103AC0007B63FFF7A9FB00F01FFFFFF777FB3B6B62
:103AD00093F844305BB2B3F1FF3F03D13B6B00225C
:103AE00083F844203B6B93F845305BB2B3F1FF3F62
:103AF00003D13B6B002283F84520FFF78DFB3A1D75
:103B000007F114031146184601F07CF90346002B17
:103B100024D1386B00F012FD0346002B18D03B6B0C
:103B200010337A681146184601F0D0F8386B00F06F
:103B30009DFC00F0F7FE0346002B7FF47CAF0C4B9E
:103B40004FF080521A60BFF34F8FBFF36F8F72E751
:103B5000386B00F08BFC00F0E5FE6CE7386B00F092
:103B600085FC00F0DFFE002318463837BD4680BDD7
:103B700004ED00E080B58EB000AFF860B9607A6007
:103B80003B60FB683B633B6B002B09D14FF050035C
:103B900083F31188BFF36F8FBFF34F8F7B62FEE714
:103BA000BB68002B03D13B6B1B6C002B01D10123A5
:103BB00000E00023002B09D14FF0500383F311885C
:103BC000BFF36F8FBFF34F8F3B62FEE73B68022B63
:103BD00003D13B6BDB6B012B01D1012300E0002300
:103BE000002B09D14FF0500383F31188BFF36F8F7F
:103BF000BFF34F8FFB61FEE7FFF7BCFBEFF31182D2
:103C00004FF0500383F31188BFF36F8FBFF34F8FD3
:103C1000BA617B61BB69FB623B6B9A6B3B6BDB6B95
:103C20009A4202D33B68022B2CD13B6B93F8453070
:103C300087F82B303A68B968386B00F087FB97F942
:103C40002B30B3F1FF3F12D13B6B5B6A002B16D0D8
:103C50003B6B2433184601F05DF80346002B0ED071
:103C60007B68002B0BD07B6801221A6007E097F875
:103C70002B300133DBB25AB23B6B83F84520012372
:103C80007B6301E000237B63FB6A3B613B6983F359
:103C900011887B6B18463837BD4680BD80B58EB025
:103CA00000AF786039607B683B633B6B002B09D1C8
:103CB0004FF0500383F31188BFF36F8FBFF34F8F23
:103CC0003B62FEE73B6B1B6C002B09D04FF05003AF
:103CD00083F31188BFF36F8FBFF34F8FFB61FEE754
:103CE0003B6B1B68002B03D13B6B5B68002B01D146
:103CF000012300E00023002B09D14FF0500383F390
:103D00001188BFF36F8FBFF34F8FBB61FEE7FFF7E3
:103D100031FBEFF311824FF0500383F31188BFF3AF
:103D20006F8FBFF34F8F7A613B617B69FB623B6BA7
:103D30009B6BBB623B6BDA6BBB6A9A422BD93B6BCA
:103D400093F8453087F82730BB6A5A1C3B6B9A635F
:103D500097F92730B3F1FF3F12D13B6B5B6A002B21
:103D600016D03B6B2433184600F0D4FF0346002BDB
:103D70000ED03B68002B0BD03B6801221A6007E095
:103D800097F827300133DBB25AB23B6B83F84520FA
:103D900001237B6301E000237B63FB6AFB60FB681C
:103DA00083F311887B6B18463837BD4680BD000011
:103DB00080B58CB000AFF860B9607A600023FB6218
:103DC000FB68BB62BB6A002B09D14FF0500383F341
:103DD0001188BFF36F8FBFF34F8F3B62FEE7BB6865
:103DE000002B03D1BB6A1B6C002B01D1012300E027
:103DF0000023002B09D14FF0500383F31188BFF348
:103E00006F8FBFF34F8FFB61FEE701F021F903468F
:103E1000002B02D17B68002B01D1012300E000239D
:103E2000002B09D14FF0500383F31188BFF36F8F3C
:103E3000BFF34F8FBB61FEE7FFF7C0F9BB6A9B6B17
:103E40007B627B6A002B1FD0B968B86A00F0E8FA81
:103E50007B6A5A1EBB6A9A63BB6A1B69002B0FD030
:103E6000BB6A1033184600F055FF0346002B07D0FD
:103E70003C4B4FF080521A60BFF34F8FBFF36F8FF0
:103E8000FFF7CAF9012369E07B68002B03D1FFF734
:103E9000C3F9002362E0FB6A002B06D107F110038F
:103EA000184600F099FF0123FB62FFF7B5F900F017
:103EB0002BFDFFF783F9BB6A93F844305BB2B3F193
:103EC000FF3F03D1BB6A002283F84420BB6A93F80A
:103ED00045305BB2B3F1FF3F03D1BB6A002283F8E8
:103EE0004520FFF799F93A1D07F1100311461846CE
:103EF00000F088FF0346002B23D1B86A00F008FBCE
:103F00000346002B17D0BB6A24337A681146184643
:103F100000F0DCFEB86A00F0A9FA00F003FD0346E9
:103F2000002B89D10F4B4FF080521A60BFF34F8F97
:103F3000BFF36F8F80E7B86A00F098FA00F0F2FCE8
:103F40007AE7B86A00F092FA00F0ECFCB86A00F088
:103F5000DFFA0346002B3FF46FAF002318463037DB
:103F6000BD4680BD04ED00E080B58EB000AF786046
:103F7000396000237B637B68FB6200233B63FB6A41
:103F8000002B09D14FF0500383F31188BFF36F8FDB
:103F9000BFF34F8F3B62FEE7FB6A1B6C002B09D01F
:103FA0004FF0500383F31188BFF36F8FBFF34F8F30
:103FB000FB61FEE701F04CF80346002B02D13B68A1
:103FC000002B01D1012300E00023002B09D14FF089
:103FD000500383F31188BFF36F8FBFF34F8FBB6123
:103FE000FEE7FFF7EBF8FB6A9B6BBB62BB6A002B3B
:103FF00024D0BB6A5A1EFB6A9A63FB6A1B68002BBB
:1040000004D101F0EBF90246FB6A5A60FB6A1B69B6
:10401000002B0FD0FB6A1033184600F07BFE0346DE
:10402000002B07D0534B4FF080521A60BFF34F8FD5
:10403000BFF36F8FFFF7F0F8012396E03B68002B8A
:1040400010D13B6B002B09D04FF0500383F3118844
:10405000BFF36F8FBFF34F8F7B61FEE7FFF7DCF895
:10406000002382E07B6B002B06D107F10C0318467E
:1040700000F0B2FE01237B63FFF7CEF800F044FCB2
:10408000FFF79CF8FB6A93F844305BB2B3F1FF3F53
:1040900003D1FB6A002283F84420FB6A93F8453081
:1040A0005BB2B3F1FF3F03D1FB6A002283F84520E6
:1040B000FFF7B2F83A4607F10C031146184600F034
:1040C000A1FE0346002B32D1F86A00F021FA034624
:1040D000002B26D0FB6A1B68002B09D1FFF76EF876
:1040E000FB6A5B68184600F0D1FF3863FFF794F86D
:1040F000FB6A24333A681146184600F0E7FDF86A77
:1041000000F0B4F900F00EFC0346002B7FF469AF19
:10411000184B4FF080521A60BFF34F8FBFF36F8F71
:104120005FE7F86A00F0A2F900F0FCFB59E7F86AD3
:1041300000F09CF900F0F6FBF86A00F0E9F903469C
:10414000002B3FF44EAF3B6B002B0DD0FFF736F842
:10415000F86A00F0E3F87862FB6A5B68796A1846EF
:1041600001F09EF8FFF758F8002318463837BD468F
:1041700080BD00BF04ED00E080B58EB000AFF860F8
:10418000B9607A60FB683B633B6B002B09D14FF051
:10419000500383F31188BFF36F8FBFF34F8F3B62E0
:1041A000FEE7BB68002B03D13B6B1B6C002B01D1DE
:1041B000012300E00023002B09D14FF0500383F3CB
:1041C0001188BFF36F8FBFF34F8FFB61FEE7FFF7DF
:1041D000D1F8EFF311824FF0500383F31188BFF34E
:1041E0006F8FBFF34F8FBA617B61BB69FB623B6B23
:1041F0009B6BBB62BB6A002B2FD03B6B93F84430A8
:1042000087F82730B968386B00F00AF9BB6A5A1E84
:104210003B6B9A6397F92730B3F1FF3F12D13B6BA9
:104220001B69002B16D03B6B1033184600F072FD53
:104230000346002B0ED07B68002B0BD07B6801223D
:104240001A6007E097F827300133DBB25AB23B6BB4
:1042500083F8442001237B6301E000237B63FB6A36
:104260003B613B6983F311887B6B18463837BD4649
:1042700080BD80B584B000AF78607B68002B09D129
:104280004FF0500383F31188BFF36F8FBFF34F8F4D
:10429000BB60FEE7FEF792FF7B689B6BFB60FEF75F
:1042A000BBFFFB6818461037BD4680BD80B485B0A3
:1042B00000AF78607B68002B09D14FF0500383F387
:1042C0001188BFF36F8FBFF34F8FBB60FEE77B6832
:1042D0009B6BFB60FB6818461437BD465DF8047B9A
:1042E000704780B584B000AF78607B68FB60FB6886
:1042F000002B09D14FF0500383F31188BFF36F8F68
:10430000BFF34F8FBB60FEE7F86800F02FF9F86845
:10431000FFF730F900BF1037BD4680BD80B485B0CF
:1043200000AF78607B685B6A002B06D07B681B6BF4
:104330001B68C3F10703FB6001E00023FB60FB681F
:1043400018461437BD465DF8047B704780B586B0CB
:1043500000AFF860B9607A6000237B61FB689B6BFB
:104360003B61FB681B6C002B0DD1FB681B68002BAD
:104370004DD1FB685B68184600F00EFF7861FB6862
:1043800000225A6043E07B68002B19D1FB689868D3
:10439000FB681B6C1A46B96810F005F8FB689A6850
:1043A000FB681B6C1A44FB689A60FB689A68FB68A0
:1043B0005B689A422BD3FB681A68FB689A6026E018
:1043C000FB68D868FB681B6C1A46B9680FF0EBFFF6
:1043D000FB68DA68FB681B6C5B421A44FB68DA60B6
:1043E000FB68DA68FB681B689A4207D2FB685A6868
:1043F000FB681B6C5B421A44FB68DA607B68022B2B
:1044000005D13B69002B02D03B69013B3B613B6915
:104410005A1CFB689A637B6918461837BD4680BDF5
:1044200080B582B000AF786039607B681B6C002B70
:1044300018D07B68DA687B681B6C1A447B68DA608A
:104440007B68DA687B685B689A4203D37B681A688A
:104450007B68DA607B68D9687B681B6C1A463868B1
:104460000FF0A1FF00BF0837BD4680BD80B584B006
:1044700000AF7860FEF7A2FE7B6893F84530FB73CF
:1044800011E07B685B6A002B12D07B6824331846EE
:1044900000F040FC0346002B01D000F013FDFB7B35
:1044A000013BDBB2FB7397F90F30002BE9DC00E036
:1044B00000BF7B68FF2283F84520FEF7ADFEFEF7C4
:1044C0007DFE7B6893F84430BB7311E07B681B6909
:1044D000002B12D07B681033184600F01BFC0346FB
:1044E000002B01D000F0EEFCBB7B013BDBB2BB73C9
:1044F00097F90E30002BE9DC00E000BF7B68FF225B
:1045000083F84420FEF788FE00BF1037BD4680BD0B
:1045100080B584B000AF7860FEF750FE7B689B6B7F
:10452000002B02D10123FB6001E00023FB60FEF7BA
:1045300073FEFB6818461037BD4680BD80B584B059
:1045400000AF7860FEF73AFE7B689A6B7B68DB6BA6
:104550009A4202D10123FB6001E00023FB60FEF7D9
:104560005BFEFB6818461037BD4680BD80B485B041
:1045700000AF78600023FB6016E0104AFB68DB00A8
:1045800013445A687B689A420BD10C4AFB6800219D
:1045900042F83310094AFB68DB00134400225A60DA
:1045A00005E0FB680133FB60FB68072BE5D900BF22
:1045B0001437BD465DF8047B704700BF983F00206C
:1045C00080B58CB004AFF860B9603B601346FB80E7
:1045D000FB889B001846FEF70BFF78617B69002B78
:1045E0000ED05420FEF704FFF861FB69002B03D0C6
:1045F000FB697A691A6305E07869FEF7BBFF01E0A1
:104600000023FB61FB69002B13D0FA88002303937E
:10461000FB690293FB6A0193BB6A00933B68B9682C
:10462000F86800F00EF8F86900F08AF80123BB6121
:1046300002E04FF0FF33BB61BB6918462037BD462F
:1046400080BD80B588B000AFF860B9607A603B602B
:104650003B6B1A6B7B6803F18043013B9B00134467
:10466000BB61BB6923F00703BB61BB6903F00703B0
:10467000002B09D04FF0500383F31188BFF36F8FE5
:10468000BFF34F8F7B61FEE70023FB6112E0BA6846
:10469000FB69134419783A6BFB69134434330A46B7
:1046A0001A70BA68FB6913441B78002B06D0FB69AB
:1046B0000133FB61FB690F2BE9D900E000BF3B6BC5
:1046C000002283F84320BB6A062B01D90623BB6274
:1046D0003B6BBA6ADA623B6BBA6A5A643B6B002284
:1046E0009A643B6B04331846FEF7ADFB3B6B183303
:1046F0001846FEF7A8FB3B6B3A6B1A61BB6AC3F125
:1047000007023B6B9A613B6B3A6B5A623B6B002230
:10471000DA643B6B002283F850203A68F968B86984
:10472000FEF726FC02463B6B1A60FB6A002B02D0A8
:10473000FB6A3A6B1A6000BF2037BD4680BD00009F
:1047400080B582B000AF7860FEF738FD2A4B1B6859
:104750000133294A1360294B1B68002B09D1274AD2
:104760007B681360244B1B68012B10D100F0CEFB3B
:104770000DE0234B1B68002B09D1204B1B68DA6A24
:104780007B68DB6A9A4202D81C4A7B6813601D4B27
:104790001B6801331B4A13607B68DB6A01229A4065
:1047A000194B1B681343184A13607B68DA6A134677
:1047B0009B0013449B00154A1A447B680433194636
:1047C0001046FEF74DFBFEF727FD0D4B1B68002B37
:1047D0000ED00A4B1B68DA6A7B68DB6A9A4207D202
:1047E0000B4B4FF080521A60BFF34F8FBFF36F8FA8
:1047F00000BF0837BD4680BDBC3D0020BC3C00204A
:10480000C83D0020D83D0020C43D0020C03C002011
:1048100004ED00E080B584B000AF78600023FB6059
:104820007B68002B16D0134B1B68002B09D04FF070
:10483000500383F31188BFF36F8FBFF34F8FBB60BB
:10484000FEE700F061F80021786800F0DBFD00F081
:1048500069F8F860FB68002B07D1074B4FF08052D6
:104860001A60BFF34F8FBFF36F8F00BF1037BD4685
:1048700080BD00BFE43D002004ED00E080B586B0BF
:1048800002AF1B4B019300230093002380221949A0
:104890001948FFF795FEF860FB68012B15D14FF022
:1048A000500383F31188BFF36F8FBFF34F8FBB604B
:1048B000124B4FF0FF321A60114B01221A60114B5C
:1048C00000221A60FEF7DCFB0DE0FB68B3F1FF3F4E
:1048D00009D14FF0500383F31188BFF36F8FBFF3FB
:1048E0004F8F7B60FEE700BF1037BD4680BD00BF25
:1048F000E03D002058520108DD4E0008DC3D00205C
:10490000C83D0020C03D002080B400AF044B1B68B0
:104910000133034A136000BFBD465DF8047B704756
:10492000E43D002080B584B000AF0023FB6000238D
:10493000BB60414B1B68002B09D14FF0500383F340
:104940001188BFF36F8FBFF34F8F3B60FEE7FEF719
:1049500035FC394B1B68013B374A1360364B1B68EB
:10496000002B61D1354B1B68002B5DD02EE0344B02
:10497000DB68DB68FB60FB6818331846FEF7CDFA8E
:10498000FB6804331846FEF7C8FAFB68DB6A0122AD
:104990009A402C4B1B6813432A4A1360FB68DA6A5F
:1049A00013469B0013449B00274A1A44FB680433B8
:1049B00019461046FEF754FAFB68DA6A234B1B6867
:1049C000DB6A9A4202D3224B01221A601C4B1B68FD
:1049D000002BCCD1FB68002B01D000F013FB1D4B4A
:1049E0001B687B607B68002B10D000F059F80346F1
:1049F000002B02D0164B01221A607B68013B7B60C2
:104A00007B68002BF1D1134B00221A60104B1B68FE
:104A1000002B09D00123BB600F4B4FF080521A606E
:104A2000BFF34F8FBFF36F8FFEF7F6FBBB681846DF
:104A30001037BD4680BD00BFE43D0020BC3D0020D6
:104A40007C3D0020C43D0020C03C0020BC3C002038
:104A5000D03D0020CC3D002004ED00E080B483B0C8
:104A600000AF054B1B687B607B6818460C37BD4662
:104A70005DF8047B704700BFC03D002080B582B068
:104A800000AFFEF777FC00237B60044B1B683B60A4
:104A90003B6818460837BD4680BD00BFC03D0020BA
:104AA00080B586B000AF00237B61504B1B68002BA4
:104AB00040F08C804E4B1B6801333B614C4A3B6994
:104AC00013603B69002B1FD14A4B1B681B68002BEE
:104AD00009D04FF0500383F31188BFF36F8FBFF3FA
:104AE0004F8F3B60FEE7434B1B68FB60424B1B68EC
:104AF000404A1360404AFB681360404B1B68013317
:104B00003E4A136000F07EFA3D4B1B683A699A42B8
:104B10004DD3384B1B681B68002B01D1012300E0EB
:104B20000023002B04D0364B4FF0FF321A603EE0DA
:104B3000304B1B68DB68DB68BB60BB685B687B6015
:104B40003A697B689A4203D22D4A7B6813602EE053
:104B5000BB6804331846FEF7E0F9BB689B6A002B7C
:104B600004D0BB6818331846FEF7D7F9BB68DB6A78
:104B700001229A40234B1B681343224A1360BB68EF
:104B8000DA6A13469B0013449B001F4A1A44BB6811
:104B9000043319461046FEF763F9BB68DA6A1B4B0B
:104BA0001B68DB6A9A42B4D301237B61B1E7174BE0
:104BB0001B68DA6A144913469B0013449B000B449C
:104BC0001B68012B07D901237B6104E0104B1B6894
:104BD00001330F4A13600F4B1B68002B01D00123D8
:104BE0007B617B6918461837BD4680BDE43D0020D7
:104BF000C03D0020743D0020783D0020D43D0020C1
:104C0000DC3D0020C43D0020C03C0020BC3C002016
:104C1000CC3D0020D03D002080B487B000AF264BB3
:104C20001B68002B03D0254B01221A603EE0234B6A
:104C300000221A60224B1B68FB60FB68B3FA83F307
:104C4000FB72FB7AC3F11F037B611E497A6913462D
:104C50009B0013449B000B441B68002B09D14FF0B1
:104C6000500383F31188BFF36F8FBFF34F8F7B60C7
:104C7000FEE77A6913469B0013449B00114A1344D4
:104C80003B613B695B685A683B695A603B695A689B
:104C90003B6908339A4204D13B695B685A683B69B7
:104CA0005A603B695B68DB68074A136000BF1C37CA
:104CB000BD465DF8047B7047E43D0020D03D0020F8
:104CC000C43D0020C03C0020BC3C002080B584B026
:104CD00000AF786039607B68002B09D14FF050033A
:104CE00083F31188BFF36F8FBFF34F8FFB60FEE735
:104CF000074B1B68183319467868FEF7D5F8012171
:104D0000386800F07FFB00BF1037BD4680BD00BF94
:104D1000BC3C002080B586B000AF78607B68DB6863
:104D2000DB683B613B69002B09D14FF0500383F3F3
:104D30001188BFF36F8FBFF34F8FFB60FEE73B69B6
:104D400018331846FEF7E9F81D4B1B68002B1CD1E1
:104D50003B6904331846FEF7E0F83B69DB6A012241
:104D60009A40184B1B681343164A13603B69DA6A72
:104D700013469B0013449B00134A1A443B690433B7
:104D800019461046FEF76CF805E03B6918331946E2
:104D90000E48FEF765F83B69DA6A0D4B1B68DB6A63
:104DA0009A4205D901237B610A4B01221A6001E076
:104DB00000237B617B6918461837BD4680BD00BF64
:104DC000E43D0020C43D0020C03C00207C3D00208C
:104DD000BC3C0020D03D002080B483B000AF7860A0
:104DE000064B1A687B681A60054B1A687B685A6024
:104DF00000BF0C37BD465DF8047B7047D43D0020F2
:104E0000C03D002080B588B000AF786039607B6815
:104E1000002B09D14FF0500383F31188BFF36F8F3C
:104E2000BFF34F8F3B61FEE73B68002B09D14FF08A
:104E3000500383F31188BFF36F8FBFF34F8FFB6075
:104E4000FEE7FEF7BBF91D4B1B68BB617B685B6827
:104E5000BA69D31A7B613B681B68B3F1FF3F02D18B
:104E60000023FB6123E07B681A68154B1B689A429C
:104E700007D07B685A68BB699A4202D80123FB615C
:104E800015E03B681A687B699A420BD93B681A683F
:104E90007B69D21A3B681A607868FFF79DFF002390
:104EA000FB6104E03B6800221A600123FB61FEF70E
:104EB000B3F9FB6918462037BD4680BDC03D0020D0
:104EC000D43D002080B400AF034B01221A6000BF24
:104ED000BD465DF8047B7047D03D002080B582B0B0
:104EE00000AF786000F052F8064B1B68012BF9D92F
:104EF000054B4FF080521A60BFF34F8FBFF36F8F97
:104F0000F0E700BFC03C002004ED00E080B582B0B7
:104F100000AF00237B600CE07A6813469B001344CB
:104F20009B00124A13441846FDF76DFF7B6801335E
:104F30007B607B68062BEFD90D48FDF764FF0D48B9
:104F4000FDF761FF0C48FDF75EFF0C48FDF75BFFC6
:104F50000B48FDF758FF0B4B054A1A600A4B054AF0
:104F60001A6000BF0837BD4680BD00BFC03C0020AE
:104F70004C3D0020603D00207C3D0020903D002005
:104F8000A83D0020743D0020783D002080B582B00F
:104F900000AF19E0FEF712F90F4BDB68DB687B60AE
:104FA0007B6804331846FDF7B8FF0C4B1B68013BC8
:104FB0000A4A13600A4B1B68013B094A1360FEF75B
:104FC0002BF9786800F00EF8054B1B68002BE1D137
:104FD00000BF0837BD4680BD903D0020BC3D00208D
:104FE000A43D002080B582B000AF78607B681B6B69
:104FF0001846FEF7BFFA7868FEF7BCFA00BF08371C
:10500000BD4680BD80B483B000AF0F4B1B681B68EA
:10501000002B01D1012300E00023002B04D00B4B17
:105020004FF0FF321A6008E0074B1B68DB68DB6853
:105030007B607B685B68054A136000BF0C37BD4628
:105040005DF8047B704700BF743D0020DC3D00200C
:1050500080B483B000AF0B4B1B68002B02D101233F
:105060007B6008E0084B1B68002B02D102237B60A9
:1050700001E000237B607B6818460C37BD465DF875
:10508000047B7047C83D0020E43D002080B584B01B
:1050900000AF78607B68BB600023FB607B68002BFF
:1050A0006ED0BB68DA6A394B1B68DB6A9A425ED203
:1050B000BB689B69002B06DB344B1B68DB6AC3F1C2
:1050C0000702BB689A61BB685969BB68DA6A134614
:1050D0009B0013449B002E4A1344994201D10123A3
:1050E00000E00023002B3AD0BB6804331846FDF7DC
:1050F00014FF0346002B15D1BB68DA6A2449134616
:105100009B0013449B000B441B68002B0AD1BB6817
:10511000DB6A012202FA03F3DA431E4B1B681340D9
:105120001C4A1360194B1B68DA6ABB68DA62BB68F9
:10513000DB6A01229A40174B1B681343154A136020
:10514000BB68DA6A13469B0013449B00104A1A445A
:10515000BB68043319461046FDF782FE04E00B4B92
:105160001B68DA6ABB68DA620123FB6008E0BB688F
:105170005A6C064B1B68DB6A9A4201D20123FB6022
:10518000FB6818461037BD4680BD00BFBC3C002000
:10519000C03C0020C43D002080B586B000AF7860E0
:1051A0007B683B6100237B617B68002B6CD0394BB3
:1051B0001B683A699A4209D04FF0500383F3118873
:1051C000BFF36F8FBFF34F8FFB60FEE73B699B6CB4
:1051D000002B09D14FF0500383F31188BFF36F8F79
:1051E000BFF34F8FBB60FEE73B699B6C5A1E3B6968
:1051F0009A643B69DA6A3B695B6C9A4244D03B69CA
:105200009B6C002B40D13B6904331846FDF785FEAB
:105210000346002B15D13B69DA6A1F4913469B00F0
:1052200013449B000B441B68002B0AD13B69DB6ACB
:10523000012202FA03F3DA43184B1B681340174AA2
:1052400013603B695A6C3B69DA623B69DB6AC3F104
:1052500007023B699A613B69DB6A01229A400F4B66
:105260001B6813430D4A13603B69DA6A13469B00BF
:1052700013449B00084A1A443B69043319461046FC
:10528000FDF7EEFD01237B617B6918461837BD46AB
:1052900080BD00BFBC3C0020C03C0020C43D0020BD
:1052A00080B588B000AF786039607B68BB6101234E
:1052B0007B617B68002B00F08680BB699B6C002BB8
:1052C00009D14FF0500383F31188BFF36F8FBFF301
:1052D0004F8FFB60FEE7BB695A6C3B689A4202D273
:1052E0003B68FB6102E0BB695B6CFB61BB69DA6A2E
:1052F000FB699A4267D0BB699A6C7B699A4262D11A
:10530000334B1B68BA699A4209D14FF0500383F3BB
:105310001188BFF36F8FBFF34F8FBB60FEE7BB6990
:10532000DB6A3B61BB69FA69DA62BB699B69002B86
:1053300004DBFB69C3F10702BB699A61BB69596968
:105340003A6913469B0013449B00224A1344994236
:1053500001D1012300E00023002B34D0BB690433CA
:105360001846FDF7DAFD0346002B15D1BB69DA6A52
:10537000184913469B0013449B000B441B68002BE9
:105380000AD1BB69DB6A012202FA03F3DA43124B4A
:105390001B681340104A1360BB69DB6A01229A4004
:1053A0000D4B1B6813430C4A1360BB69DA6A134642
:1053B0009B0013449B00074A1A44BB6904331946F7
:1053C0001046FDF74DFD00BF2037BD4680BD00BF34
:1053D000BC3C0020C03C0020C43D002080B400AF95
:1053E000074B1B68002B04D0054B1B689A6C0132DD
:1053F0009A64034B1B681846BD465DF8047B7047F2
:10540000BC3C002080B584B000AF78603960294B87
:105410001B68FB60284B1B6804331846FDF77DFDB5
:105420000346002B0BD1244B1B68DB6A012202FAD6
:1054300003F3DA43214B1B681340204A13607B6857
:10544000B3F1FF3F0AD13B68002B07D01A4B1B6812
:10545000043319461A48FDF703FD26E0FA687B6815
:105460001344BB60144B1B68BA685A60BA68FB6887
:105470009A4209D2134B1A680F4B1B680433194622
:105480001046FDF711FD10E00F4B1A680A4B1B6820
:10549000043319461046FDF707FD0C4B1B68BA682C
:1054A0009A4202D2094ABB68136000BF1037BD465A
:1054B00080BD00BFC03D0020BC3C0020C43D00209A
:1054C000A83D0020783D0020743D0020DC3D0020F8
:1054D00080B584B000AF786039603B681B680C33DE
:1054E0001A463968786802F06DF90346FB7397F93C
:1054F0000F30002B03D13B6893F9043001E097F99A
:105500000F3018461037BD4680BD000080B58AB008
:1055100000AF03463A60FB710B46BB71FB793968FB
:10552000184600F083FF78627B6A002B54D0BB7969
:105530003B757B6AFB6007F10C0319462948FFF7AE
:10554000C7FF034687F8233097F92330002B43D059
:105550007B6A5B68002B05D0234B892223492448B2
:105560000EF034FF7B6A103318460DF097FE0346A9
:10557000002B05D11C4B8A221E491D480EF026FF28
:105580007B6A143318460DF089FE0346002B05D0C4
:10559000154B8C22184916480EF018FF7B6A0C3305
:1055A00018460DF00AFF0346002B05D10E4B8F2243
:1055B00012490F480EF00AFF7B6A0C3318460DF0B3
:1055C000EFFE7B6A103318460DF0CCFD796A072098
:1055D00006F09AFD002300E07B6A18462837BD4696
:1055E00080BD00BFD56300086052010894520108D5
:1055F000B8520108E0520108F85201081C53010892
:1056000080B588B000AF78607B68002B01D10023A3
:1056100016E07B68BB6029237B7407F108031946F9
:105620000948FFF755FF0346FB7797F91F30002B1A
:1056300002D097F91F3003E0786800F067FF00237D
:1056400018462037BD4680BD9169000880B58AB0F4
:1056500000AFF860B9601346FB80FB68002B08D1EF
:10566000114BFF22114912480EF0B0FE6FF00F03EC
:1056700015E0BB68002B01D10E4BBB60FB683B61A2
:10568000BB68BB61FB88BB8307F1100319460A485E
:10569000FFF71EFF034687F8273097F92730184693
:1056A0002837BD4680BD00BF6052010898530108ED
:1056B000B8520108C07E0108956B000880B588B01B
:1056C00000AF78600B46FB707B68002B09D10D4B57
:1056D0004FF4B4720C490D480EF078FE6FF00F03D2
:1056E0000BE07B68BB6007F1080319460848FFF729
:1056F000EFFE0346FB7797F91F3018462037BD466B
:1057000080BD00BF60520108F8530108B85201087B
:10571000556C000880B586B000AF786039603B6892
:10572000002B09D1344B40F28D12344934480EF02D
:105730004DFE6FF00F035BE03B6800221A607B6850
:10574000002B09D12C4B40F28F122E492C480EF021
:105750003DFE6FF00F034BE07B6893F9083013F1C7
:105760000C0F03DA7B6893F9083041E07B6814334F
:1057700018460DF093FD0346002B02D16FF00E0387
:1057800036E07B68143307F10C01002218460DF057
:105790002AFDFB687B617B689B6A002B05D07B68D8
:1057A0009B6A0022012178689847FB68164A934259
:1057B00002D16FF00C031BE07B69002B14D17B68D6
:1057C000002B0ED00DF07AFE38617B6893F908301B
:1057D00013F10C0F02DB7B68F1221A7238690DF0AD
:1057E0007BFE6FF00E0303E03B687A691A600023CA
:1057F00018461837BD4680BD60520108185401088C
:10580000B852010838540108D83F002080B58AB04A
:1058100000AF7860396000233B623B68002B09D100
:105820005C4B40F2E7125C495C480EF0CFFD6FF034
:105830000F03AAE03B6800221A607B68002B09D1A5
:10584000544B40F2E912564954480EF0BFFD6FF038
:105850000F039AE07B681B7803F0F003102B15D13F
:105860007B68103318460DF019FD0346002B0DD14F
:105870007B68143318460DF011FD0346002B02D04F
:105880006FF00A0381E06FF00E037EE07B68103357
:1058900018460DF003FD0346002B09D13D4B40F2A5
:1058A000F51240493D480EF091FD6FF00A036CE09F
:1058B0007B6893F9083013F10C0F03DA7B6893F9D6
:1058C000083062E07B68103307F12001002218469F
:1058D0000DF089FC7B681B7803F0F003102B38D1A6
:1058E0007B68FB603B6A002B03D03B6A1B897B61B2
:1058F00001E001237B6107F10C0319462A48FFF7F9
:10590000E7FD3B6A002B20D17B689B6A002B05D00A
:105910007B689B6A00220121786898477B685B68F6
:10592000002B0BD17B6893F90830002B03D07B68E8
:1059300093F9083029E06FF00D0326E00121786823
:1059400000F026F96FF00E031FE03B6A1B89FB8411
:105950000DE03B6A002B06D10E4B40F23E2213496C
:105960000E480EF033FD3B6A1B681B89FB847B6885
:105970009B6A002B05D07B689B6AFA8C01217868B2
:1059800098473A6A3B681A60002318462837BD4694
:1059900080BD00BF6052010858540108B852010888
:1059A0007854010894540108D96D0008B4540108D2
:1059B00080B586B000AF7860396000237B613B68BA
:1059C000002B09D1314B4FF41D72314931480EF093
:1059D000FDFC6FF00F0354E03B6800221A607B6807
:1059E000002B09D1294B40F276222B4929480EF091
:1059F000EDFC6FF00F0344E07B681B7803F0F003CD
:105A0000102B39D10023FB60062006F02BFB7861B8
:105A10007B69002B02D14FF0FF3332E007F10C031A
:105A200019467868FFF7F2FE0346FB7497F91330C6
:105A3000002B06D07969062006F066FB97F9133033
:105A40001FE0FB68002B06D1104B40F28A2213495D
:105A500010480EF0BBFCFA687B691A60FA687B6933
:105A60005A607B6900229A817B6900229A603B68B8
:105A70007A691A60002304E039687868FFF7C6FE87
:105A8000034618461837BD4680BD00BF6052010866
:105A900058540108B852010878540108C05401084C
:105AA00080B58AB000AFF860B9607A60FB70FB68BF
:105AB000002B09D1314B40F2E622314931480EF03A
:105AC00085FC6FF00F0354E0FB681B7803F0F003D4
:105AD000102B09D0294B40F2E7222B4929480EF020
